:10000000B0C00000C9C00000C7C00000C5C00000EB
:10001000C3C00000C1C00000BFC00000BDC00000E0
:10002000BBC00000B9C0000089C20000B5C000001C
:10003000B3C00000B1C00000AFC00000ADC0000000
:10004000ABC00000A9C00000A7C00000A5C0000010
:10005000A3C00000A1C000009FC000009DC0000020
:100060009BC0000099C0000097C0000095C0000030
:1000700093C0000091C000008FC000008DC0000040
:100080008BC0000089C0000087C0000085C0000050
:1000900083C0000081C000007FC000007DC0000060
:1000A0007BC0000079C0000077C000001201100181
:1000B00000000008EB0348200100010200010902D2
:1000C0006500020100C032090400000001010000C7
:1000D00009240100010900010109040100020103D2
:1000E000000007240100014100062402010100066E
:1000F0002402020200092403010301020100092471
:100100000302040101010009050102400001000091
:1001100005250101010905820240000100000525B5
:100120000101030403090418034400650061006E23
:10013000002000430061006D006500720061000056
:10014000001E034C0055004600410020004D0049B0
:1001500000440049002000440065006D006F00006D
:10016000000011241FBECFEFDAE0DEBFCDBF11E0EB
:10017000A0E0B1E0ECE2FCE002C005900D92AA30F4
:10018000B107D9F711E0AAE0B1E001C01D92AC318E
:10019000B107E1F7B0D048C533CF5E9A08955E98B5
:1001A0000895089580E091E00BD580FD02C090E4B1
:1001B00001C090E08BB19095806498239BB908951D
:1001C000DF93CF9300D000D0CDB7DEB790910A0176
:1001D000882311F420E001C020E48BE08983906B38
:1001E0009A83605B6B832C8380E091E0BE016F5F3C
:1001F0007F4FC8D480E091E0A0D40F900F900F9073
:100200000F90CF91DF910895DF92EF92FF920F93BD
:100210001F93E82EF62ED42EF82601E010E0802F52
:100220008F2129F0612F6D0D802F8E21C9DF1F5F77
:10023000183011F0000FF3CF1F910F91FF90EF9046
:10024000DF9008950F931F9303B180910E0108274B
:1002500019B180910D011827802F60910C0140E0A9
:10026000D3DF812F60910B0148E0CEDF80910C013C
:10027000081721F480910B01181769F08CE291E0C6
:1002800020E931E0F9013197F1F70197D9F70093AF
:100290000C0110930B011F910F91089584B7877F74
:1002A00084BF88E10FB6F8948093600010926000DC
:1002B0000FBE80E090E020E80FB6F8942093610034
:1002C000809361000FBE14B88FEF85B91AB88BB94F
:1002D000569A5E9A1DD188EE93E020E931E0F9014B
:1002E0003197F1F70197D9F783B180930E0189B166
:1002F00080930D0108950F931F93DF93CF9300D048
:1003000000D0CDB7DEB7CADF5E9878948E010F5F5C
:100310001F4F98DF14C089818F70893079F48C81E8
:10032000882361F08B81813410F490E001C090E467
:100330008BB19095806498239BB901C05E9A80E050
:1003400091E0B801DBD3882331F780E091E012D44B
:10035000C2D3DFCFDA01923049F0933061F09130AF
:10036000F9F4ECEAF0E022E130E01EC0EEEBF0E060
:1003700025E630E019C0813049F0813018F0823034
:1003800079F408C0E3E2F1E0849107C0E7E2F1E02C
:10039000849103C0E1E4F1E08491282F30E004C0AF
:1003A000E0E0F0E020E030E0ED93FC93C901089537
:1003B0008093E9008091EB0081608093EB001092C4
:1003C000ED006093EC004093ED008091EE00881FFB
:1003D0008827881F08958091140188239CF404C005
:1003E000809113018823B9F08091E80082FFF8CF53
:1003F0008091E8008B778093E80008958091130145
:10040000882349F08091E80080FFF8CF8091E800D0
:100410008E778093E80008954091E4005091E500C4
:1004200024E68091EC0080FF05C08091E80080FF09
:1004300005C022C08091E80082FD1EC0809113019A
:10044000882311F482E00895853011F483E0089543
:100450008091EB0085FF02C081E008958091E40067
:100460009091E50084179507E1F2222311F484E0CE
:1004700008952150AC01D5CF80E0089552D059D0D5
:100480008091D800982F9F779093D80080688093B0
:10049000D8008AE482BF80E189BD89B5826089BDC8
:1004A00009B400FEFDCF8091D8008F7D8093D800E5
:1004B00010921301109211011092100110920F016D
:1004C0008091E0008B7F8093E0008091D800816074
:1004D0008093D80080E060E042E06ADF8091E10034
:1004E0008E7F8093E1008091E20081608093E20042
:1004F0008091E20088608093E2008091E0008E7F2E
:100500008093E0008091D80080618093D8000895A6
:10051000E7EDF0E080818160808381E080931201CB
:10052000ADCFE8EDF0E080818E7F80831092E20015
:1005300008951092DA001092E10008951F920F9230
:100540000FB60F9211242F933F934F935F936F93A6
:100550007F938F939F93AF93BF93EF93FF9380917C
:10056000DA0080FF15C08091D80080FF11C0809113
:10057000DA008E7F8093DA008091D90080FF05C079
:1005800081E08093130109DE03C01092130107DE9E
:100590008091E10080FF1DC08091E20080FF19C0C2
:1005A0008091E1008E7F8093E1008091E2008E7F58
:1005B0008093E2008091E20080618093E20080916C
:1005C000D80080628093D80019BC85E08093130125
:1005D000A3D18091E10084FF2EC08091E20084FFCE
:1005E0002AC080E189BD89B5826089BD09B400FE59
:1005F000FDCF8091D8008F7D8093D8008091E1005D
:100600008F7E8093E1008091E2008F7E8093E200F4
:100610008091E20081608093E20080911101882343
:1006200031F48091E30087FD02C081E001C084E0E5
:100630008093130171D18091E10083FF22C08091EA
:10064000E20083FF1EC08091E100877F8093E1007C
:1006500082E080931301109211018091E1008E7F5E
:100660008093E1008091E2008E7F8093E200809190
:10067000E20080618093E20080E060E042E098DE8A
:100680004BD18091E10082FF0AC08091E20082FF9D
:1006900006C08091E1008B7F8093E1003DD1FF9106
:1006A000EF91BF91AF919F918F917F916F915F91EA
:1006B0004F913F912F910F900FBE0F901F90189563
:1006C0000F931F93DF93CF9300D0CDB7DEB7E4E154
:1006D000F1E08091F100819381E0EC31F807C9F7F6
:1006E00060DD8091E80083FF02C1809114013091A8
:1006F0001501353009F487C0363040F43130C9F186
:10070000313070F0333009F0F2C033C0383009F4C2
:10071000C0C0393009F4CFC0363009F0E8C099C004
:10072000803821F0823809F0E2C008C090910F01B2
:1007300080911001882399F0926011C08091180176
:1007400087708093E9008091EB0090E025E096951A
:1007500087952A95E1F7982F91701092E900809182
:10076000E800877F8093E8009093F1001092F100F9
:100770009BC0882319F0823009F0B9C090E08F71D6
:100780009070009721F0029709F0B1C00CC08091E1
:100790001601813009F0ABC010921001333069F5B9
:1007A000809310012AC080911601882331F5209191
:1007B0001801277009F49BC02093E9008091EB0099
:1007C00080FF1BC0333021F48091EB00806213C0A6
:1007D0008091EB0080618093EB0081E090E002C0AB
:1007E000880F991F2A95E2F78093EA001092EA0099
:1007F0008091EB0088608093EB001092E90080917B
:10080000E800877F54C0882309F071C01091160159
:100810001F770FB7F8948091E800877F8093E800F6
:10082000DADD8091E80080FFFCCF112311F482E033
:1008300001C083E0809313018091E3008078182B3E
:100840001093E3008091E30080688093E3000FBF82
:100850004EC08058823008F04AC0809116019091B5
:10086000170160911801AE014F5F5F4F73DDBC014E
:10087000009709F43CC08091E800877F8093E800EE
:1008800089819A814AD08091E8008B778093E80033
:100890002EC0803861F58091E800877F8093E80062
:1008A000809111018093F1008091E8008E77809310
:1008B000E80091DD1CC08823D1F49091160192309C
:1008C000B0F48091E800877F8093E8009093110155
:1008D00082DD80911101882331F48091E30087FD4E
:1008E00002C081E001C084E0809313015BDC809151
:1008F000E80083FF0AC08091EB0080628093EB00E8
:100900008091E800877F8093E8000F900F90CF914F
:10091000DF911F910F91089508959C0140911A0154
:1009200050911B014617570710F4E0E046C06115CF
:10093000710511F0AB01F9CF8091E8008E778093BB
:10094000E80040E050E0F1CF80911301882309F4E2
:1009500048C0853009F447C08091E80083FF02C099
:1009600081E008958091E80082FD35C08091E80023
:1009700080FF23C08091F3009091F200782F60E017
:10098000892F90E0862B972B09C0F9012F5F3F4FED
:10099000E491E093F100415050400196411551051A
:1009A00019F08830910588F3E0E0089709F4E1E058
:1009B0008091E8008E778093E8004115510509F099
:1009C000C3CFEE2309F0C0CF06C080911301882366
:1009D00041F0853041F08091E80082FFF6CF80E061
:1009E000089582E0089583E00895DF92EF92FF92E8
:1009F0000F931F93CF93DF93182F092FEB017A01E9
:100A00000BDDD82E882319F5812F902F9C018901A9
:100A10001CC08091E80085FD12C08091E8008B77B2
:100A20008093E800E114F10431F0F7010995813079
:100A300011F485E00DC0F0DC882339F009C0809105
:100A4000F100F80181938F012197209711F78D2DE7
:100A5000DF91CF911F910F91FF90EF90DF9008955C
:100A6000DF92EF92FF920F931F93CF93DF93182F94
:100A7000092FEB017A01D0DCD82E882319F5812FBC
:100A8000902F9C0189011CC08091E80085FD12C057
:100A90008091E8008E778093E800E114F10431F052
:100AA000F7010995813011F485E00DC0B5DC88238C
:100AB00039F009C0F80181918F018093F1002197ED
:100AC000209711F78D2DDF91CF911F910F91FF90FE
:100AD000EF90DF9008951F9380911301882361F0B8
:100AE0001091E9001092E9008091E80083FF01C0B5
:100AF000E7DD17701093E9001F910895FC018091C4
:100B000013018430C1F485818093E9008091E8006D
:100B100085FF11C0CB0164E070E040E050E065DF8C
:100B20008091E80085FD05C08091E8008B77809377
:100B3000E80081E0089580E00895FC0180911301B0
:100B4000843011F082E0089581818093E900409122
:100B5000F3002091F200942F80E030E0822B932B61
:100B6000892B11F480E008958091E8008E778093BE
:100B7000E80052CC9C0180911301843011F4C9012A
:100B8000DCCF0895FC0180911301843011F092E0D4
:100B900015C081818093E900CB0164E070E040E002
:100BA00050E05EDF982F882349F48091E80085FDAE
:100BB00005C08091E8008E778093E800892F089522
:100BC0001F93CF93DF93EC0111E08981181729F46B
:100BD000EA81FB818C8161E007C08D811817E1F407
:100BE000EE81FF81888560E0882311F440E001C038
:100BF00044E020E088E090E003C02F5F880F991F59
:100C00008E179F07D0F3606842602295207F422BA9
:100C1000812FCEDB882321F01F5F1730B1F681E0F2
:0C0C2000DF91CF911F910895F894FFCF51
:0A0C2C00010240000001400000003A
:00000001FF
